{
  "_format": "hh-sol-artifact-1",
  "contractName": "SoulShop",
  "sourceName": "contracts/token_erc20.sol",
  "abi": [
    {
      "inputs": [],
      "stateMutability": "nonpayable",
      "type": "constructor"
    },
    {
      "anonymous": false,
      "inputs": [
        {
          "indexed": false,
          "internalType": "uint256",
          "name": "_amount",
          "type": "uint256"
        },
        {
          "indexed": true,
          "internalType": "address",
          "name": "_buyer",
          "type": "address"
        }
      ],
      "name": "Purchase",
      "type": "event"
    },
    {
      "anonymous": false,
      "inputs": [
        {
          "indexed": false,
          "internalType": "uint256",
          "name": "_amount",
          "type": "uint256"
        },
        {
          "indexed": true,
          "internalType": "address",
          "name": "_seller",
          "type": "address"
        }
      ],
      "name": "Sale",
      "type": "event"
    },
    {
      "inputs": [],
      "name": "owner",
      "outputs": [
        {
          "internalType": "address payable",
          "name": "",
          "type": "address"
        }
      ],
      "stateMutability": "view",
      "type": "function"
    },
    {
      "inputs": [
        {
          "internalType": "uint256",
          "name": "_amountToSell",
          "type": "uint256"
        }
      ],
      "name": "sell",
      "outputs": [],
      "stateMutability": "nonpayable",
      "type": "function"
    },
    {
      "inputs": [],
      "name": "token",
      "outputs": [
        {
          "internalType": "contract IERC20",
          "name": "",
          "type": "address"
        }
      ],
      "stateMutability": "view",
      "type": "function"
    },
    {
      "inputs": [],
      "name": "tokenBalance",
      "outputs": [
        {
          "internalType": "uint256",
          "name": "",
          "type": "uint256"
        }
      ],
      "stateMutability": "view",
      "type": "function"
    },
    {
      "stateMutability": "payable",
      "type": "receive"
    }
  ],
  "bytecode": "0x608060405234801561001057600080fd5b503060405161001e906100ca565b6100289190610118565b604051809103906000f080158015610044573d6000803e3d6000fd5b506000806101000a81548173ffffffffffffffffffffffffffffffffffffffff021916908373ffffffffffffffffffffffffffffffffffffffff16021790555033600160006101000a81548173ffffffffffffffffffffffffffffffffffffffff021916908373ffffffffffffffffffffffffffffffffffffffff160217905550610133565b6118bb80610bee83390190565b600073ffffffffffffffffffffffffffffffffffffffff82169050919050565b6000610102826100d7565b9050919050565b610112816100f7565b82525050565b600060208201905061012d6000830184610109565b92915050565b610aac806101426000396000f3fe6080604052600436106100435760003560e01c80638da5cb5b146101bc5780639e1a4d19146101e7578063e4849b3214610212578063fc0c546a1461023b576101b7565b366101b757600034905060008111610090576040517f08c379a0000000000000000000000000000000000000000000000000000000008152600401610087906106a3565b60405180910390fd5b80610099610266565b10156100da576040517f08c379a00000000000000000000000000000000000000000000000000000000081526004016100d19061070f565b60405180910390fd5b60008054906101000a900473ffffffffffffffffffffffffffffffffffffffff1673ffffffffffffffffffffffffffffffffffffffff1663a9059cbb33836040518363ffffffff1660e01b8152600401610135929190610789565b600060405180830381600087803b15801561014f57600080fd5b505af1158015610163573d6000803e3d6000fd5b505050503373ffffffffffffffffffffffffffffffffffffffff167f6b8e277b5ac199aea04139b79dce59b078ad22c9648f1bd3083495991809b770826040516101ad91906107b2565b60405180910390a2005b600080fd5b3480156101c857600080fd5b506101d1610308565b6040516101de91906107ee565b60405180910390f35b3480156101f357600080fd5b506101fc610266565b60405161020991906107b2565b60405180910390f35b34801561021e57600080fd5b506102396004803603810190610234919061083a565b61032e565b005b34801561024757600080fd5b50610250610622565b60405161025d91906108c6565b60405180910390f35b60008060009054906101000a900473ffffffffffffffffffffffffffffffffffffffff1673ffffffffffffffffffffffffffffffffffffffff166370a08231306040518263ffffffff1660e01b81526004016102c291906108e1565b602060405180830381865afa1580156102df573d6000803e3d6000fd5b505050506040513d601f19601f820116820180604052508101906103039190610911565b905090565b600160009054906101000a900473ffffffffffffffffffffffffffffffffffffffff1681565b6000811180156103d757508060008054906101000a900473ffffffffffffffffffffffffffffffffffffffff1673ffffffffffffffffffffffffffffffffffffffff166370a08231336040518263ffffffff1660e01b815260040161039391906108e1565b602060405180830381865afa1580156103b0573d6000803e3d6000fd5b505050506040513d601f19601f820116820180604052508101906103d49190610911565b10155b610416576040517f08c379a000000000000000000000000000000000000000000000000000000000815260040161040d9061098a565b60405180910390fd5b60008060009054906101000a900473ffffffffffffffffffffffffffffffffffffffff1673ffffffffffffffffffffffffffffffffffffffff1663dd62ed3e33306040518363ffffffff1660e01b81526004016104749291906109aa565b602060405180830381865afa158015610491573d6000803e3d6000fd5b505050506040513d601f19601f820116820180604052508101906104b59190610911565b9050818110156104fa576040517f08c379a00000000000000000000000000000000000000000000000000000000081526004016104f190610a1f565b60405180910390fd5b60008054906101000a900473ffffffffffffffffffffffffffffffffffffffff1673ffffffffffffffffffffffffffffffffffffffff166323b872dd3330856040518463ffffffff1660e01b815260040161055793929190610a3f565b600060405180830381600087803b15801561057157600080fd5b505af1158015610585573d6000803e3d6000fd5b505050503373ffffffffffffffffffffffffffffffffffffffff166108fc839081150290604051600060405180830381858888f193505050501580156105cf573d6000803e3d6000fd5b503373ffffffffffffffffffffffffffffffffffffffff167f938e870e870a8d47d06b8bbd499d54ea37fb4f7777de1ff086d6d71e1fa159968360405161061691906107b2565b60405180910390a25050565b60008054906101000a900473ffffffffffffffffffffffffffffffffffffffff1681565b600082825260208201905092915050565b7f6e6f7420656e6f7567682066756e647321000000000000000000000000000000600082015250565b600061068d601183610646565b915061069882610657565b602082019050919050565b600060208201905081810360008301526106bc81610680565b9050919050565b7f6e6f7420656e6f75676820746f6b656e73210000000000000000000000000000600082015250565b60006106f9601283610646565b9150610704826106c3565b602082019050919050565b60006020820190508181036000830152610728816106ec565b9050919050565b600073ffffffffffffffffffffffffffffffffffffffff82169050919050565b600061075a8261072f565b9050919050565b61076a8161074f565b82525050565b6000819050919050565b61078381610770565b82525050565b600060408201905061079e6000830185610761565b6107ab602083018461077a565b9392505050565b60006020820190506107c7600083018461077a565b92915050565b60006107d88261072f565b9050919050565b6107e8816107cd565b82525050565b600060208201905061080360008301846107df565b92915050565b600080fd5b61081781610770565b811461082257600080fd5b50565b6000813590506108348161080e565b92915050565b6000602082840312156108505761084f610809565b5b600061085e84828501610825565b91505092915050565b6000819050919050565b600061088c6108876108828461072f565b610867565b61072f565b9050919050565b600061089e82610871565b9050919050565b60006108b082610893565b9050919050565b6108c0816108a5565b82525050565b60006020820190506108db60008301846108b7565b92915050565b60006020820190506108f66000830184610761565b92915050565b60008151905061090b8161080e565b92915050565b60006020828403121561092757610926610809565b5b6000610935848285016108fc565b91505092915050565b7f696e636f727265637420616d6f756e7421000000000000000000000000000000600082015250565b6000610974601183610646565b915061097f8261093e565b602082019050919050565b600060208201905081810360008301526109a381610967565b9050919050565b60006040820190506109bf6000830185610761565b6109cc6020830184610761565b9392505050565b7f636865636b20616c6c6f77616e63652100000000000000000000000000000000600082015250565b6000610a09601083610646565b9150610a14826109d3565b602082019050919050565b60006020820190508181036000830152610a38816109fc565b9050919050565b6000606082019050610a546000830186610761565b610a616020830185610761565b610a6e604083018461077a565b94935050505056fea26469706673582212208fb2aea15791e84caa26f9efa4606574691eb76140cdc4fc7ba8aaf51113b2ff64736f6c6343000811003360806040523480156200001157600080fd5b50604051620018bb380380620018bb83398181016040528101906200003791906200031d565b6040518060400160405280600981526020017f536f756c546f6b656e00000000000000000000000000000000000000000000008152506040518060400160405280600481526020017f534f554c0000000000000000000000000000000000000000000000000000000081525061014d838360049081620000b89190620005c9565b508260059081620000ca9190620005c9565b5033600160006101000a81548173ffffffffffffffffffffffffffffffffffffffff021916908373ffffffffffffffffffffffffffffffffffffffff1602179055506200011e82826200012960201b60201c565b5050505050620007cb565b600160009054906101000a900473ffffffffffffffffffffffffffffffffffffffff1673ffffffffffffffffffffffffffffffffffffffff163373ffffffffffffffffffffffffffffffffffffffff1614620001bc576040517f08c379a0000000000000000000000000000000000000000000000000000000008152600401620001b39062000711565b60405180910390fd5b620001d060008284620002ae60201b60201c565b81600260008373ffffffffffffffffffffffffffffffffffffffff1673ffffffffffffffffffffffffffffffffffffffff168152602001908152602001600020600082825462000221919062000762565b92505081905550816000808282546200023b919062000762565b925050819055508073ffffffffffffffffffffffffffffffffffffffff16600073ffffffffffffffffffffffffffffffffffffffff167fddf252ad1be2c89b69c2b068fc378daa952ba7f163c4a11628f55a4df523b3ef84604051620002a29190620007ae565b60405180910390a35050565b505050565b600080fd5b600073ffffffffffffffffffffffffffffffffffffffff82169050919050565b6000620002e582620002b8565b9050919050565b620002f781620002d8565b81146200030357600080fd5b50565b6000815190506200031781620002ec565b92915050565b600060208284031215620003365762000335620002b3565b5b6000620003468482850162000306565b91505092915050565b600081519050919050565b7f4e487b7100000000000000000000000000000000000000000000000000000000600052604160045260246000fd5b7f4e487b7100000000000000000000000000000000000000000000000000000000600052602260045260246000fd5b60006002820490506001821680620003d157607f821691505b602082108103620003e757620003e662000389565b5b50919050565b60008190508160005260206000209050919050565b60006020601f8301049050919050565b600082821b905092915050565b600060088302620004517fffffffffffffffffffffffffffffffffffffffffffffffffffffffffffffffff8262000412565b6200045d868362000412565b95508019841693508086168417925050509392505050565b6000819050919050565b6000819050919050565b6000620004aa620004a46200049e8462000475565b6200047f565b62000475565b9050919050565b6000819050919050565b620004c68362000489565b620004de620004d582620004b1565b8484546200041f565b825550505050565b600090565b620004f5620004e6565b62000502818484620004bb565b505050565b5b818110156200052a576200051e600082620004eb565b60018101905062000508565b5050565b601f82111562000579576200054381620003ed565b6200054e8462000402565b810160208510156200055e578190505b620005766200056d8562000402565b83018262000507565b50505b505050565b600082821c905092915050565b60006200059e600019846008026200057e565b1980831691505092915050565b6000620005b983836200058b565b9150826002028217905092915050565b620005d4826200034f565b67ffffffffffffffff811115620005f057620005ef6200035a565b5b620005fc8254620003b8565b620006098282856200052e565b600060209050601f8311600181146200064157600084156200062c578287015190505b620006388582620005ab565b865550620006a8565b601f1984166200065186620003ed565b60005b828110156200067b5784890151825560018201915060208501945060208101905062000654565b868310156200069b578489015162000697601f8916826200058b565b8355505b6001600288020188555050505b505050505050565b600082825260208201905092915050565b7f796f7520617265206e6f7420616e206f776e6572000000000000000000000000600082015250565b6000620006f9601483620006b0565b91506200070682620006c1565b602082019050919050565b600060208201905081810360008301526200072c81620006ea565b9050919050565b7f4e487b7100000000000000000000000000000000000000000000000000000000600052601160045260246000fd5b60006200076f8262000475565b91506200077c8362000475565b925082820190508082111562000797576200079662000733565b5b92915050565b620007a88162000475565b82525050565b6000602082019050620007c560008301846200079d565b92915050565b6110e080620007db6000396000f3fe608060405234801561001057600080fd5b50600436106100a95760003560e01c806370a082311161007157806370a082311461014057806394bf804d1461017057806395d89b411461018c5780639dc29fac146101aa578063a9059cbb146101c6578063dd62ed3e146101e2576100a9565b806306fdde03146100ae578063095ea7b3146100cc57806318160ddd146100e857806323b872dd14610106578063313ce56714610122575b600080fd5b6100b6610212565b6040516100c39190610c4a565b60405180910390f35b6100e660048036038101906100e19190610d05565b6102a4565b005b6100f061038e565b6040516100fd9190610d54565b60405180910390f35b610120600480360381019061011b9190610d6f565b610397565b005b61012a610659565b6040516101379190610d54565b60405180910390f35b61015a60048036038101906101559190610dc2565b610662565b6040516101679190610d54565b60405180910390f35b61018a60048036038101906101859190610def565b6106ab565b005b61019461081f565b6040516101a19190610c4a565b60405180910390f35b6101c460048036038101906101bf9190610d05565b6108b1565b005b6101e060048036038101906101db9190610d05565b6109bf565b005b6101fc60048036038101906101f79190610e2f565b610b2e565b6040516102099190610d54565b60405180910390f35b60606004805461022190610e9e565b80601f016020809104026020016040519081016040528092919081815260200182805461024d90610e9e565b801561029a5780601f1061026f5761010080835404028352916020019161029a565b820191906000526020600020905b81548152906001019060200180831161027d57829003601f168201915b5050505050905090565b80600360003373ffffffffffffffffffffffffffffffffffffffff1673ffffffffffffffffffffffffffffffffffffffff16815260200190815260200160002060008473ffffffffffffffffffffffffffffffffffffffff1673ffffffffffffffffffffffffffffffffffffffff168152602001908152602001600020819055508173ffffffffffffffffffffffffffffffffffffffff163373ffffffffffffffffffffffffffffffffffffffff167f6e11fb1b7f119e3f2fa29896ef5fdf8b8a2d0d4df6fe90ba8668e7d8b2ffa25e836040516103829190610d54565b60405180910390a35050565b60008054905090565b8281806103a383610662565b10156103e4576040517f08c379a00000000000000000000000000000000000000000000000000000000081526004016103db90610f1b565b60405180910390fd5b6103ef858585610bb5565b82600360008773ffffffffffffffffffffffffffffffffffffffff1673ffffffffffffffffffffffffffffffffffffffff16815260200190815260200160002060008673ffffffffffffffffffffffffffffffffffffffff1673ffffffffffffffffffffffffffffffffffffffff1681526020019081526020016000205410156104ae576040517f08c379a00000000000000000000000000000000000000000000000000000000081526004016104a590610f87565b60405180910390fd5b82600360008773ffffffffffffffffffffffffffffffffffffffff1673ffffffffffffffffffffffffffffffffffffffff16815260200190815260200160002060003373ffffffffffffffffffffffffffffffffffffffff1673ffffffffffffffffffffffffffffffffffffffff168152602001908152602001600020600082825461053a9190610fd6565b9250508190555082600260008773ffffffffffffffffffffffffffffffffffffffff1673ffffffffffffffffffffffffffffffffffffffff16815260200190815260200160002060008282546105909190610fd6565b9250508190555082600260008673ffffffffffffffffffffffffffffffffffffffff1673ffffffffffffffffffffffffffffffffffffffff16815260200190815260200160002060008282546105e6919061100a565b925050819055508373ffffffffffffffffffffffffffffffffffffffff168573ffffffffffffffffffffffffffffffffffffffff167fddf252ad1be2c89b69c2b068fc378daa952ba7f163c4a11628f55a4df523b3ef8560405161064a9190610d54565b60405180910390a35050505050565b60006012905090565b6000600260008373ffffffffffffffffffffffffffffffffffffffff1673ffffffffffffffffffffffffffffffffffffffff168152602001908152602001600020549050919050565b600160009054906101000a900473ffffffffffffffffffffffffffffffffffffffff1673ffffffffffffffffffffffffffffffffffffffff163373ffffffffffffffffffffffffffffffffffffffff161461073b576040517f08c379a00000000000000000000000000000000000000000000000000000000081526004016107329061108a565b60405180910390fd5b61074760008284610bb5565b81600260008373ffffffffffffffffffffffffffffffffffffffff1673ffffffffffffffffffffffffffffffffffffffff1681526020019081526020016000206000828254610796919061100a565b92505081905550816000808282546107ae919061100a565b925050819055508073ffffffffffffffffffffffffffffffffffffffff16600073ffffffffffffffffffffffffffffffffffffffff167fddf252ad1be2c89b69c2b068fc378daa952ba7f163c4a11628f55a4df523b3ef846040516108139190610d54565b60405180910390a35050565b60606005805461082e90610e9e565b80601f016020809104026020016040519081016040528092919081815260200182805461085a90610e9e565b80156108a75780601f1061087c576101008083540402835291602001916108a7565b820191906000526020600020905b81548152906001019060200180831161088a57829003601f168201915b5050505050905090565b600160009054906101000a900473ffffffffffffffffffffffffffffffffffffffff1673ffffffffffffffffffffffffffffffffffffffff163373ffffffffffffffffffffffffffffffffffffffff1614610941576040517f08c379a00000000000000000000000000000000000000000000000000000000081526004016109389061108a565b60405180910390fd5b61094d82600083610bb5565b80600260008473ffffffffffffffffffffffffffffffffffffffff1673ffffffffffffffffffffffffffffffffffffffff168152602001908152602001600020600082825461099c9190610fd6565b92505081905550806000808282546109b49190610fd6565b925050819055505050565b3381806109cb83610662565b1015610a0c576040517f08c379a0000000000000000000000000000000000000000000000000000000008152600401610a0390610f1b565b60405180910390fd5b610a17338585610bb5565b82600260003373ffffffffffffffffffffffffffffffffffffffff1673ffffffffffffffffffffffffffffffffffffffff1681526020019081526020016000206000828254610a669190610fd6565b9250508190555082600260008673ffffffffffffffffffffffffffffffffffffffff1673ffffffffffffffffffffffffffffffffffffffff1681526020019081526020016000206000828254610abc919061100a565b925050819055508373ffffffffffffffffffffffffffffffffffffffff163373ffffffffffffffffffffffffffffffffffffffff167fddf252ad1be2c89b69c2b068fc378daa952ba7f163c4a11628f55a4df523b3ef85604051610b209190610d54565b60405180910390a350505050565b6000600360008473ffffffffffffffffffffffffffffffffffffffff1673ffffffffffffffffffffffffffffffffffffffff16815260200190815260200160002060008373ffffffffffffffffffffffffffffffffffffffff1673ffffffffffffffffffffffffffffffffffffffff16815260200190815260200160002054905092915050565b505050565b600081519050919050565b600082825260208201905092915050565b60005b83811015610bf4578082015181840152602081019050610bd9565b60008484015250505050565b6000601f19601f8301169050919050565b6000610c1c82610bba565b610c268185610bc5565b9350610c36818560208601610bd6565b610c3f81610c00565b840191505092915050565b60006020820190508181036000830152610c648184610c11565b905092915050565b600080fd5b600073ffffffffffffffffffffffffffffffffffffffff82169050919050565b6000610c9c82610c71565b9050919050565b610cac81610c91565b8114610cb757600080fd5b50565b600081359050610cc981610ca3565b92915050565b6000819050919050565b610ce281610ccf565b8114610ced57600080fd5b50565b600081359050610cff81610cd9565b92915050565b60008060408385031215610d1c57610d1b610c6c565b5b6000610d2a85828601610cba565b9250506020610d3b85828601610cf0565b9150509250929050565b610d4e81610ccf565b82525050565b6000602082019050610d696000830184610d45565b92915050565b600080600060608486031215610d8857610d87610c6c565b5b6000610d9686828701610cba565b9350506020610da786828701610cba565b9250506040610db886828701610cf0565b9150509250925092565b600060208284031215610dd857610dd7610c6c565b5b6000610de684828501610cba565b91505092915050565b60008060408385031215610e0657610e05610c6c565b5b6000610e1485828601610cf0565b9250506020610e2585828601610cba565b9150509250929050565b60008060408385031215610e4657610e45610c6c565b5b6000610e5485828601610cba565b9250506020610e6585828601610cba565b9150509250929050565b7f4e487b7100000000000000000000000000000000000000000000000000000000600052602260045260246000fd5b60006002820490506001821680610eb657607f821691505b602082108103610ec957610ec8610e6f565b5b50919050565b7f6e6f7420656e6f75676820746f6b656e732e0000000000000000000000000000600082015250565b6000610f05601283610bc5565b9150610f1082610ecf565b602082019050919050565b60006020820190508181036000830152610f3481610ef8565b9050919050565b7f636865636b20616c6c6f77616e63650000000000000000000000000000000000600082015250565b6000610f71600f83610bc5565b9150610f7c82610f3b565b602082019050919050565b60006020820190508181036000830152610fa081610f64565b9050919050565b7f4e487b7100000000000000000000000000000000000000000000000000000000600052601160045260246000fd5b6000610fe182610ccf565b9150610fec83610ccf565b925082820390508181111561100457611003610fa7565b5b92915050565b600061101582610ccf565b915061102083610ccf565b925082820190508082111561103857611037610fa7565b5b92915050565b7f796f7520617265206e6f7420616e206f776e6572000000000000000000000000600082015250565b6000611074601483610bc5565b915061107f8261103e565b602082019050919050565b600060208201905081810360008301526110a381611067565b905091905056fea2646970667358221220ae542a5235fb5150830f5bc9cdc68b1b937915da34a66989bcbb2b8e9102f42c64736f6c63430008110033",
  "linkReferences": {},
  "deployedLinkReferences": {}
}